{
  "contractName": "ListingVerifier",
  "abi": [
    {
      "constant": true,
      "inputs": [
        {
          "name": "",
          "type": "bytes32"
        }
      ],
      "name": "listingVerifiedCount",
      "outputs": [
        {
          "name": "",
          "type": "uint256"
        }
      ],
      "payable": false,
      "stateMutability": "view",
      "type": "function"
    },
    {
      "inputs": [],
      "payable": false,
      "stateMutability": "nonpayable",
      "type": "constructor"
    },
    {
      "anonymous": false,
      "inputs": [
        {
          "indexed": true,
          "name": "verifier",
          "type": "address"
        },
        {
          "indexed": false,
          "name": "listingVerified",
          "type": "bytes32"
        },
        {
          "indexed": false,
          "name": "date",
          "type": "uint256"
        }
      ],
      "name": "VerificationIncremented",
      "type": "event"
    },
    {
      "constant": false,
      "inputs": [
        {
          "name": "_listing",
          "type": "bytes32"
        }
      ],
      "name": "verify",
      "outputs": [],
      "payable": false,
      "stateMutability": "nonpayable",
      "type": "function"
    }
  ],
  "bytecode": "0x608060405234801561001057600080fd5b50610195806100206000396000f30060806040526004361061004c576000357c0100000000000000000000000000000000000000000000000000000000900463ffffffff1680632129d1be1461005157806375e3661614610096575b600080fd5b34801561005d57600080fd5b5061008060048036038101908080356000191690602001909291905050506100c7565b6040518082815260200191505060405180910390f35b3480156100a257600080fd5b506100c560048036038101908080356000191690602001909291905050506100df565b005b60006020528060005260406000206000915090505481565b60016000808360001916600019168152602001908152602001600020600082825401925050819055503373ffffffffffffffffffffffffffffffffffffffff167f136db7b2d2f8972fdff95646dee6c5655e2aebe1e3f0d05ca3bfffa01badd96f82426040518083600019166000191681526020018281526020019250505060405180910390a2505600a165627a7a72305820af5a49f18adec4053084f8f07c03c21b32a393ffa1f04940fbd060bcf927d93f0029",
  "source": "pragma solidity ^0.4.23;\n\n/**\n * @title Listing Verification\n * @dev Track verifications for listings in the physician registry\n * @author - Shane van Coller\n */\n\ncontract ListingVerifier {\n\n    mapping(bytes32 => uint256) public listingVerifiedCount;\n    event VerificationIncremented(address indexed verifier, bytes32 listingVerified, uint256 date);\n\n    /**\n     * @dev Empty constructor\n     */\n    constructor() public {}\n\n    /**\n     * @dev Function to increment the count of verifications for a given listing\n     * @param _listing The listing to verify\n     */\n    function verify(bytes32 _listing) public {\n        listingVerifiedCount[_listing] += 1;\n        emit VerificationIncremented(msg.sender, _listing, now);\n    }\n}\n",
  "sourcePath": "/Users/shanevancoller/Development/blockchain/MedCredits/PhysicianRegistry/contracts/ListingVerifier.sol",
  "compiler": {
    "name": "solc",
    "version": "0.4.23+commit.124ca40d.Emscripten.clang"
  },
  "schemaVersion": "2.0.0",
  "updatedAt": "2018-05-21T16:50:52.770Z"
}